:020000040000FA
:040000007EEF00F09F
:060008004C82BAEF16F075
:100018004C80D8CF0DF0E8CF0EF0E0CF0FF0FACF3C
:1000280010F0FBCF11F0D9CF12F0DACF13F0F0A80F
:1000380020EF00F022EF00F02DEF00F0F0A227EF04
:1000480000F029EF00F02DEF00F02FEC1EF06EEF1E
:1000580000F09DA832EF00F034EF00F04AEF00F016
:100068009EA839EF00F03BEF00F04AEF00F002D80D
:1000780048EF00F00500FA6E0001B651FD6EB75169
:10008800FE6EFF6AFA5012006EEF00F0A0A24FEF6A
:1000980000F051EF00F05CEF00F0A1A256EF00F085
:1000A80058EF00F05CEF00F0E1EC1EF06EEF00F0AE
:1000B8009DA061EF00F063EF00F06EEF00F09EA0EE
:1000C80068EF00F06AEF00F06EEF00F0E5EC1EF06C
:1000D8006EEF00F013C0DAFF12C0D9FF11C0FBFFAA
:1000E80010C0FAFF0FC0E0FF0EC0E8FF0DC0D8FF38
:0800F8004C901000A7EF1DF071
:101000000025244C25642C25642C25642C25643B68
:10101000002446323B0024503B0024613B00246204
:101020003B0024643B0024653B0024663B00246DA8
:0B1030003B00246F3B0024733B0000DA
:10103C002B50800B0001C46F2B502B24CA6F2AAE8F
:10104C002AEF08F02CEF08F02DEF08F0CA81CA51F6
:10105C00D8B433EF08F035EF08F048EF08F0CA29A0
:10106C00D8A43BEF08F03DEF08F045EF08F0000E78
:10107C00286E000E296E000E2A6E000E2B6E2A8E24
:10108C0050EF08F0000E286E000E296E000E2A6E2E
:10109C00000E2B6E2F50800BC41B2F502F24C56FAE
:1010AC002EAE5BEF08F05DEF08F05EEF08F0C58147
:1010BC00C551D8B464EF08F066EF08F079EF08F08A
:1010CC00C529D8A46CEF08F06EEF08F076EF08F0A5
:1010DC00000E2C6E000E2D6E000E2E6E000E2F6E5E
:1010EC002E8E81EF08F0000E2C6E000E2D6E000E71
:1010FC002E6E000E2F6EC551D8B487EF08F089EF15
:10110C0008F091EF08F0CA51D8A48FEF08F091EFD6
:10111C0008F09BEF08F0000E286E000E296E000EF2
:10112C002A6E000E2B6E33EF0AF02E502802F3CFEE
:10113C00CFF0F4CFD0F0CF51C66FC76BC86BC96B73
:10114C00D051CB6FCC6BCD6BCE6B2D502902F3CF26
:10115C00CFF0F4CFD0F0CF51C627000EC723C82351
:10116C00C923D051CB27000ECC23CD23CE232C501A
:10117C002A02F3CFCFF0F4CFD0F0CF51C627000E18
:10118C00C723C823C923D051CB27000ECC23CD2392
:10119C00CE23C8C0C9F0C7C0C8F0C6C0C7F0C66B64
:1011AC002C502902F3CFCFF0F4CFD0F0CF51C6277B
:1011BC00D051C723000EC823000EC9232D5028027E
:1011CC00F3CFCFF0F4CFD0F0CF51C627D051C723F7
:1011DC00000EC823000EC923C8C0C9F0C7C0C8F090
:1011EC00C6C0C7F0C66B2C502802F3CFCFF0F4CF9B
:1011FC00D0F0CF51C627D051C723000EC823000E04
:10120C00C9232E502902F3CFCFF0F4CFD0F0CF5119
:10121C00CB27D051CC23000ECD23000ECE232D5046
:10122C002A02F3CFCFF0F4CFD0F0CF51CB27D0514F
:10123C00CC23000ECD23000ECE232E502A02F3CF4A
:10124C00CFF0F4CFD0F0CF51306ED051316E326A36
:10125C00336A32C033F031C032F030C031F0306A12
:10126C003050CB273150CC233250CD233350CE23AA
:10127C00C6C030F0C7C031F0C8C032F0C9C033F0BE
:10128C00190E4EEF09F0D8903332323231323032FF
:10129C00E82E49EF09F03050CB273150CC23325097
:1012AC00CD233350CE23C8C0C9F0C7C0C8F0C6C0C8
:1012BC00C7F0C66BC551CAC030F0316A3026000E7B
:1012CC003122820E3024CF6FFF0E3120D06F84EF8D
:1012DC0009F0D890CB37CC37CD37CE37C9AF79EFB3
:1012EC0009F07BEF09F07CEF09F0CB81D890C63781
:1012FC00C737C837C937CF07D8A0D007CDAF89EFCC
:10130C0009F08BEF09F06FEF09F0000EC56FC9AF54
:10131C0092EF09F094EF09F0B8EF09F0FF0EC61543
:10132C00306EFF0EC715316EFF0EC815326E7F0E74
:10133C00C915336E3050311032103310D8B4A9EFB8
:10134C0009F0ABEF09F0AFEF09F0010EC56FB8EF84
:10135C0009F0CBA1B4EF09F0B6EF09F0B8EF09F042
:10136C00ABEF09F0C551D8B4BEEF09F0C0EF09F0EE
:10137C00E4EF09F0010ECB27000ECC23CD23CE23B6
:10138C00CEA1CBEF09F0CDEF09F0E4EF09F0CBC023
:10139C0030F0CCC031F0CDC032F0CEC033F03334AD
:1013AC00333232323132303230C0CBF031C0CCF04B
:1013BC0032C0CDF033C0CEF0CF4BD02BD0BFEFEF3F
:1013CC0009F0D05108E1CF29D8A0EFEF09F0F1EFE7
:1013DC0009F0FBEF09F0000ECB6F000ECC6F800E06
:1013EC00CD6F7F0ECE6F29EF0AF0D0BF08EF0AF059
:1013FC00D05106E1CF05D8B006EF0AF008EF0AF09D
:10140C0014EF0AF0000ECB6F000ECC6F000ECD6FF8
:10141C00000ECE6F000EC46F29EF0AF0CFC0CAF0D9
:10142C00FF0ECB17FF0ECC177F0ECD17000ECE176D
:10143C00CAA123EF0AF025EF0AF026EF0AF0CD8FB0
:10144C00D890CA31CE6FC451CE13CBC028F0CCC0CB
:10145C0029F0CDC02AF0CEC02BF012002B50800BFF
:10146C000001C86F2B502B24CF6F2AAE40EF0AF02F
:10147C0042EF0AF043EF0AF0CF81CF51D8B449EFD5
:10148C000AF04BEF0AF060EF0AF0CF29D8A451EF25
:10149C000AF053EF0AF05BEF0AF0000E286E000E14
:1014AC00296E000E2A6E000E2B6E2A8E000E2B6EED
:1014BC0068EF0AF0000E286E000E296E000E2A6EE0
:1014CC00000E2B6E2F50800BC81B2F502F24D06F6B
:1014DC002EAE73EF0AF075EF0AF076EF0AF0D081BA
:1014EC00D051D8B47CEF0AF07EEF0AF093EF0AF0FB
:1014FC00D029D8A484EF0AF086EF0AF08EEF0AF018
:10150C00000E2C6E000E2D6E000E2E6E000E2F6E29
:10151C002E8E000E2F6E9BEF0AF0000E2C6E000E1E
:10152C002D6E000E2E6E000E2F6E2C502D102E10C8
:10153C002F10D8A4A4EF0AF0A6EF0AF0BEEF0AF021
:10154C00000E286E000E296E000E2A6E000E2B6EF9
:10155C00800E2A127F0E2B12C8512B1228C028F095
:10156C0029C029F02AC02AF02BC02BF001EF0CF077
:10157C00CF51D8A4C4EF0AF0C6EF0AF0D0EF0AF0AE
:10158C00000E286E000E296E000E2A6E000E2B6EB9
:10159C0001EF0CF0D051CFC030F0316A305E000E4C
:1015AC00315A7F0E3024C96F000E3120CA6F28C00B
:1015BC00C4F029C0C5F02AC0C6F02BC0C7F0000E7D
:1015CC00286E000E296E000E2A6E000E2B6E000E79
:1015DC00CB6F000ECC6F000ECD6F000ECE6F000ED9
:1015EC00D06F31EF0BF0D051D8B4FFEF0AF001EF10
:1015FC000BF018EF0BF0D890C437C537C637C73788
:10160C00D890283629362A362B36CEAF10EF0BF071
:10161C0012EF0BF013EF0BF02880D890CB37CC37B0
:10162C00CD37CE372C50C45D2D50C5592E50C659D0
:10163C002F50C759D8A025EF0BF027EF0BF030EF48
:10164C000BF0CE8D2C50C45F2D50C55B2E50C65B5D
:10165C002F50C75BD02B190ED06537EF0BF039EF3D
:10166C000BF0F9EF0AF0C451C511C611C711D8B46B
:10167C0042EF0BF044EF0BF05CEF0BF0CB815CEF27
:10168C000BF0D890283629362A362B36CEAF51EFB0
:10169C000BF053EF0BF054EF0BF02880D890CB37B6
:1016AC00CC37CD37CE37C907D8A0CA072AAE61EFE1
:1016BC000BF063EF0BF047EF0BF0000ED06FCEAFDB
:1016CC006AEF0BF06CEF0BF090EF0BF0FF0ECB15FD
:1016DC00306EFF0ECC15316EFF0ECD15326E7F0EB7
:1016EC00CE15336E3050311032103310D8B481EF28
:1016FC000BF083EF0BF087EF0BF0010ED06F90EF38
:10170C000BF028A08CEF0BF08EEF0BF090EF0BF0A2
:10171C0083EF0BF0D051D8B496EF0BF098EF0BF0A1
:10172C00BCEF0BF0010E2826000E29222A222B22B8
:10173C002BA0A3EF0BF0A5EF0BF0BCEF0BF028C028
:10174C0030F029C031F02AC032F02BC033F03334E2
:10175C00333232323132303230C028F031C029F0DD
:10176C0032C02AF033C02BF0C94BCA2BCABFC7EF0B
:10177C000BF0CA5108E1C929D8A0C7EF0BF0C9EF8B
:10178C000BF0D4EF0BF0000ECA6FC969000E286E77
:10179C00000E296E000E2A6E000E2B6ECABFE1EFF2
:1017AC000BF0CA5106E1C905D8B0DFEF0BF0E1EF41
:1017BC000BF0EFEF0BF0000ECA6F000EC96F000EAE
:1017CC00286E000E296E000E2A6E000E2B6E000E77
:1017DC00C86FC9C0CFF0CFA1F6EF0BF0F8EF0BF04C
:1017EC00FBEF0BF02A8EFCEF0BF02A9ED890CF313A
:1017FC002B6EB2EF0AF01200C6C0D6F0C7C0D7F0FD
:10180C00C8C0D8F0C9C0D9F0CAC0DAF0CBC0DBF080
:10181C00CCC0DCF0CDC0DDF00001DDBF18EF0CF06A
:10182C001BEF0CF0010E1CEF0CF0000ED46FD56BFF
:10183C00D451D511D8B425EF0CF027EF0CF037EFBD
:10184C000CF0DD1FDC1FDB1FDA1FD91FD81FD71FC1
:10185C00D66D000ED723D823D923DA23DB23DC2340
:10186C00DD23A7BF3CEF0CF03EEF0CF03FEF0CF08C
:10187C003C92A7BF4CEF0CF0A75106E1A605D8B0DF
:10188C004AEF0CF04CEF0CF052EF0CF0000ED16F55
:10189C00010ED06F56EF0CF0A6C0D0F0A7C0D1F05F
:1018AC00A4C0D2F0A5C0D3F0D451D511D8A461EF07
:1018BC000CF063EF0CF06AEF0CF03CA468EF0CF04A
:1018CC006AEF0CF06DEF0CF0D207D8A0D307000E26
:1018DC00DF6F1F0EDE6F000E0101676FF3EF0CF070
:1018EC00DE07D8A0DF07480EDE25D96E010EDF21FA
:1018FC00DA6ED6C014F0D7C015F0D8C016F0D9C027
:10190C0017F0DAC018F0DBC019F0DCC01AF0DDC03B
:10191C001BF00A0E1C6E000E1D6E000E1E6E000ECD
:10192C001F6E000E206E000E216E000E226E000E39
:10193C00236EACEC10F014C031F015C032F016C0B0
:10194C0033F017C034F018C035F019C036F01AC097
:10195C0037F01BC038F031C026F033C027F017EC3D
:10196C001DF02650300FDF6E0001D007D8A0D10734
:10197C00D207D8A0D307D6C014F0D7C015F0D8C062
:10198C0016F0D9C017F0DAC018F0DBC019F0DCC0C3
:10199C001AF0DDC01BF00A0E1C6E000E1D6E000E40
:1019AC001E6E000E1F6E000E206E000E216E000EBD
:1019BC00226E000E236E2EEC0FF014C0D6F015C064
:1019CC00D7F016C0D8F017C0D9F018C0DAF019C08B
:1019DC00DBF01AC0DCF01BC0DDF00001DFBFFFEF55
:1019EC000CF0DF5108E1DE05D8A0FFEF0CF001EFA1
:1019FC000DF031EF0DF0D651D711D811D911DA11F4
:101A0C00DB11DC11DD11D8A40EEF0DF010EF0DF091
:101A1C0076EF0CF0D1BF1DEF0DF0D15106E1D005E2
:101A2C00D8B01BEF0DF01DEF0DF076EF0CF0D3BF1F
:101A3C0028EF0DF0D35108E1D205D8A028EF0DF016
:101A4C002AEF0DF031EF0DF03CB22FEF0DF031EF2E
:101A5C000DF076EF0CF0D451D511D8A438EF0DF071
:101A6C003AEF0DF041EF0DF03CA43FEF0DF041EFDC
:101A7C000DF05FEF0DF0DE07D8A0DF07D451D511C4
:101A8C00D8A44BEF0DF04DEF0DF053EF0DF0000E11
:101A9C00CF6F2B0ECE6F57EF0DF0000ECF6F2D0EBC
:101AAC00CE6F480EDE25D96E010EDF21DA6ECEC068
:101ABC00DFFFC4C026F0C5C027F0480EDE25286E17
:101ACC00010EDF21296ED2C02AF0D3C02BF09AEC84
:101ADC0015F026C0C4F027C0C5F01200E2C0D9FF33
:101AEC00E3C0DAFFDECFF6FFDDCFF7FFF86A0800C0
:101AFC00F550250AD8A485EF0DF087EF0DF037EFE0
:101B0C000EF0E2C0D9FFE3C0DAFFDE2A000EDD22C0
:101B1C00000E0001A56F000EA46FA4C03CF0A5C080
:101B2C003DF0A669A769E2C0D9FFE3C0DAFFDECFBA
:101B3C00F6FFDDCFF7FFF86A0800F550640AD8B459
:101B4C00AAEF0DF0ACEF0DF0BFEF0DF0E2C0D9FF36
:101B5C00E3C0DAFFDECFF6FFDDCFF7FFF86A08004F
:101B6C00F550690AD8A4BDEF0DF0BFEF0DF0FFEFF3
:101B7C000DF0E2C0D9FFE3C0DAFFDE2A000EDD2251
:101B8C00E4C0D9FFE5C0DAFFDFCFE6F0020EDE26B7
:101B9C00DFCFE7F0000EDD22E6C0D9FFE7C0DAFFA9
:101BAC00DECFE8F0DDCFE9F0000EE9BFFF0EEA6F03
:101BBC00EB6FEC6FED6FEE6FEF6FE0C0C4F0E1C058
:101BCC00C5F0E8C0C6F0E9C0C7F0EAC0C8F0EBC089
:101BDC00C9F0ECC0CAF0EDC0CBF0EEC0CCF0EFC059
:101BEC00CDF002EC0CF0C4C0E0F0C5C0E1F053EF56
:101BFC000EF0E2C0D9FFE3C0DAFFDECFF6FFDDCF97
:101C0C00F7FFF86A0800F550250AD8A410EF0EF07B
:101C1C0012EF0EF02AEF0EF0E2C0D9FFE3C0DAFFAC
:101C2C00DE2A000EDD22000E176E250E166EE0C0A9
:101C3C0018F0E1C019F0FBEC18F0000E0001E16F98
:101C4C00010EE06F53EF0EF0E2C0D9FFE3C0DAFFF4
:101C5C00DE2A000EDD22000EE16F000EE06F53EF66
:101C6C000EF0E2C0D9FFE3C0DAFFDECFF6FFDDCF26
:101C7C00F7FFF86A0800F550166E176AE0C018F006
:101C8C00E1C019F0FBEC18F0E2C0D9FFE3C0DAFFB9
:101C9C00DE2A000EDD2223EF0EF01200226E2250FF
:101CAC00D8B45BEF0EF05DEF0EF07FEF0EF01DBEC3
:101CBC0064EF0EF062EF0EF07FEF0EF01AC01EF024
:101CCC001BC01FF01CC020F01DC021F01E1E1F1ECB
:101CDC00201E211E1E2A000E1F22202221221EC081
:101CEC0024F01FC025F020C026F021C027F087EF7C
:101CFC000EF01AC024F01BC025F01CC026F01DC02D
:101D0C0027F01A501B101C101D10D8A490EF0EF0C9
:101D1C0092EF0EF09CEF0EF0000E1A6E000E1B6E82
:101D2C00000E1C6E000E1D6E2DEF0FF0960E236E26
:101D3C00A6EF0EF0232AD8902732263225322432F1
:101D4C00000E24141E6E000E25141F6E000E261499
:101D5C00206EFE0E2714216E1E501F102010211015
:101D6C00D8A4BBEF0EF0BDEF0EF0A0EF0EF0CBEF52
:101D7C000EF0232A010E2426000E252226222722CD
:101D8C00D8902732263225322432000E24141E6EAF
:101D9C00000E25141F6E000E2614206EFF0E271445
:101DAC00216E1E501F1020102110D8A4E0EF0EF051
:101DBC00E2EF0EF0BFEF0EF0EAEF0EF02306D89034
:101DCC00243625362636273626BEEFEF0EF0F1EFF9
:101DDC000EF0F9EF0EF0020E2360F7EF0EF0F9EFB4
:101DEC000EF0E4EF0EF023B0FEEF0EF000EF0FF06C
:101DFC0001EF0FF0269ED890233223C01EF01F6AED
:101E0C00206A216A1EC021F0206A1F6A1E6A1E50B9
:101E1C0024121F5025122050261221502712225016
:101E2C00D8B41BEF0FF01DEF0FF025EF0FF01DBE18
:101E3C0024EF0FF022EF0FF025EF0FF0278E24C0C8
:101E4C001AF025C01BF026C01CF027C01DF0120094
:101E5C00000E256E23BE37EF0FF035EF0FF049EF74
:101E6C000FF0231E221E211E201E1F1E1E1E1D1EB5
:101E7C001C6C000E1D221E221F2220222122222237
:101E8C002322010E256E1BBE50EF0FF04EEF0FF00C
:101E9C0062EF0FF01B1E1A1E191E181E171E161E9F
:101EAC00151E146C000E1522162217221822192248
:101EBC001A221B22010E251A20EE26F0070EDE6ACE
:101ECC00E806FDE21C501D101E101F1020102110E2
:101EDC0022102310D8B475EF0FF077EF0FF0C9EF85
:101EEC000FF0010E246E85EF0FF0D8901C361D36C6
:101EFC001E361F362036213622362336242A23AEB0
:101F0C008AEF0FF08CEF0FF07BEF0FF0D8902636A6
:101F1C002736283629362A362B362C362D361C50A9
:101F2C00145C1D5015581E5016581F501758205031
:101F3C0018582150195822501A5823501B58D8A001
:101F4C00AAEF0FF0ACEF0FF0BDEF0FF01C50145ECA
:101F5C001D50155A1E50165A1F50175A2050185AF9
:101F6C002150195A22501A5A23501B5A2680D890A5
:101F7C0023322232213220321F321E321D321C32C9
:101F8C00242E8CEF0FF02550D8B4CFEF0FF0D1EFFB
:101F9C000FF0E1EF0FF02D1E2C1E2B1E2A1E291EFA
:101FAC00281E271E266C000E2722282229222A22D0
:101FBC002B222C222D2226C014F027C015F028C06D
:101FCC0016F029C017F02AC018F02BC019F02CC03D
:101FDC001AF02DC01BF012000001E26F000E60EC35
:101FEC0018F0D7C0DEF0D8C0DFF0D9C0E0F0DAC00E
:101FFC00E1F00001E205D8B406EF10F008EF10F0A4
:10200C0010EF10F0E251D8A40EEF10F010EF10F01A
:10201C0054EF10F0DEC02CF0DFC02DF0E0C02EF03D
:10202C00E1C02FF0DB511A6E1B6A1C6A1D6A010E8F
:10203C0054EC0EF01AC028F01BC029F01CC02AF07A
:10204C001DC02BF01EEC08F028C034F029C035F070
:10205C002AC036F02BC037F0BBEC13F034C0E3F0E1
:10206C0035C0E4F0E3C0DCF0E4C0DDF00001D89052
:10207C00DD33DC33D890DD33DC33DC510F015E6FA4
:10208C00E3C0DCF00001DC3B0F015D510001DC1909
:10209C00CF0BDC190F015D6FABEF10F0020EE219E4
:1020AC00D8A45BEF10F05DEF10F0ABEF10F0DEC0DA
:1020BC002CF0DFC02DF0E0C02EF0E1C02FF0640E4C
:1020CC00DC6F000EDD6FDB51DC5F000EDD5BDCC016
:1020DC001AF0DDC01BF0000E1BBEFF0E1C6E1D6E39
:1020EC00010E54EC0EF01AC028F01BC029F01CC0D5
:1020FC002AF01DC02BF01EEC08F028C034F029C0CB
:10210C0035F02AC036F02BC037F0BBEC13F034C0DE
:10211C00E3F035C0E4F0E3C0DCF0E4C0DDF0000136
:10212C00D890DD33DC33D890DD33DC33DC510F0158
:10213C005E6FE3C0DCF00001DC3B0F015D51000180
:10214C00DC19CF0BDC190F015D6F1200000E256E30
:10215C001BBEB5EF10F0B3EF10F0C7EF10F01B1E65
:10216C001A1E191E181E171E161E151E146C000E94
:10217C00152216221722182219221A221B22010EAE
:10218C00256E23BECEEF10F0CCEF10F0DEEF10F08A
:10219C00231E221E211E201E1F1E1E1E1D1E1C6CF9
:1021AC00000E1D221E221F22202221222222232247
:1021BC001C501D101E101F10201021102210231057
:1021CC00D8B4EBEF10F0EDEF10F035EF11F0010E8D
:1021DC00246EFBEF10F0D8901C361D361E361F36C1
:1021EC002036213622362336242A23AE00EF11F076
:1021FC0002EF11F0F1EF10F01C50145C1D5015584B
:10220C001E5016581F501758205018582150195846
:10221C0022501A5823501B58D8A017EF11F019EF61
:10222C0011F029EF11F01C50145E1D50155A1E5060
:10223C00165A1F50175A2050185A2150195A22500A
:10224C001A5A23501B5AD890233222322132203270
:10225C001F321E321D321C32242E02EF11F025507B
:10226C00D8B43BEF11F03DEF11F04DEF11F01B1E08
:10227C001A1E191E181E171E161E151E146C000E83
:10228C00152216221722182219221A221B2214C0D8
:10229C0014F015C015F016C016F017C017F018C0C2
:1022AC0018F019C019F01AC01AF01BC01BF012005C
:1022BC000001DE6F000E65EC1AF034C0DAF035C0A8
:1022CC00DBF036C0DCF037C0DDF00001DE05D8B441
:1022DC0072EF11F074EF11F07CEF11F0DE51D8A415
:1022EC007AEF11F07CEF11F0BBEF11F0DAC02CF0AB
:1022FC00DBC02DF0DCC02EF0DDC02FF0D7511A6EF4
:10230C001B6A1C6A1D6A010E54EC0EF01AC028F0F0
:10231C001BC029F01CC02AF01DC02BF01EEC08F0CD
:10232C0028C034F029C035F02AC036F02BC037F065
:10233C00BBEC13F034C0DFF035C0E0F0DFC0D8F0F8
:10234C00E0C0D9F00001D890D933D833D890D93324
:10235C00D833D851676EDFC0D8F0D83B6650D81947
:10236C00CF0BD819666E0DEF12F0020EDE19D8A441
:10237C00C2EF11F0C4EF11F00DEF12F0DAC02CF037
:10238C00DBC02DF0DCC02EF0DDC02FF0640ED86F5A
:10239C00000ED96FD751D85F000ED95BD8C01AF098
:1023AC00D9C01BF0000E1BBEFF0E1C6E1D6E010E65
:1023BC0054EC0EF01AC028F01BC029F01CC02AF0F7
:1023CC001DC02BF01EEC08F028C034F029C035F0ED
:1023DC002AC036F02BC037F0BBEC13F034C0DFF062
:1023EC0035C0E0F0DFC0D8F0E0C0D9F00001D890E3
:1023FC00D933D833D890D933D833D851676EDFC09E
:10240C00D8F0D83B6650D819CF0BD819666E12008D
:10241C000001EB6F000E0001EA6F000EE46F000E7E
:10242C00E56F000EE66F000EE76F33EF12F0EB5125
:10243C0046EC19F0E806D8A426EF12F028EF12F0BB
:10244C002CEF12F00001A02B33EF12F0050E00015F
:10245C009E6F000EA06F3BEF12F0040EA06539EFDB
:10246C0012F03BEF12F01DEF12F0040EA06541EFDD
:10247C0012F043EF12F04FEF12F0010E9E6FEBC013
:10248C009FF0000EA06F000EE16F000EE06FA2EF48
:10249C0012F0020E0001E36FA00EE26F920EE82E16
:1024AC00FED7E22FFCD7E32FFAD700F0470E15EC3E
:1024BC0017F0D7C0E8F0D8C0E9F0030E0001A1195D
:1024CC00D8A46BEF12F06DEF12F077EF12F0030E51
:1024DC009E6FEBC09FF0000EE16F000EE06FA2EF5D
:1024EC0012F0E851E427E951E523000EE623000E33
:1024FC00E723EA2B070E9E6FE051EA5DD8A089EF27
:10250C0012F08BEF12F033EF12F0000E9E6F000EF4
:10251C009F6FE4C014F0E5C015F0E6C016F0E7C0FC
:10252C0017F0E051186E196A1A6A1B6ABEEC17F0A4
:10253C0014C0E0F015C0E1F012000101726F0A0E38
:10254C001B6E010E23EC1AF01BC092F01CC093F012
:10255C001CEF13F023EC1BF0090AD8A4B8EF12F00F
:10256C00BAEF12F0BDEF12F0090E34EF13F00001C8
:10257C00935107E1260E925DD8B0C7EF12F0C9EF68
:10258C0012F033EF13F04004D8A4CFEF12F0D1EFD8
:10259C0012F0DAEF12F0E5EC1AF02A0E0101686F76
:1025AC00100E696FBEEC1DF03B50D8A4E0EF12F09A
:1025BC00E2EF12F0E4EF12F0010E3B6E040E34EF7A
:1025CC0013F023EC1BF0090AD8A4EFEF12F0F1EF93
:1025DC0012F0F3EF12F0BAEF12F0E10E0001925D7F
:1025EC00020E9359D8A0FDEF12F0FFEF12F033EF6B
:1025FC0013F04004D8A405EF13F007EF13F010EF1D
:10260C0013F0E5EC1AF02A0E0101686F100E696FD9
:10261C00BEEC1DF03B50D8A416EF13F018EF13F0DE
:10262C00E4EF12F0020E3B6EE4EF12F00101725176
:10263C000001FE6FFF6BFF51000AD8B428EF13F0B6
:10264C0033EF13F0FE51010AD8B4E7EF12F0030A8E
:10265C00D8B4B0EF12F033EF13F0010E1200000EED
:10266C00296E27BE3EEF13F03CEF13F048EF13F04A
:10267C00271E261E251E246C000E2522262227220C
:10268C00010E296E23BE4FEF13F04DEF13F059EFEF
:10269C0013F0231E221E211E206C000E212222224A
:1026AC002322010E291A000E2A6E000E2B6E000E2C
:1026BC002C6E000E2D6E2450251026102710D8B429
:1026CC006AEF13F06CEF13F0A2EF13F0010E286E0B
:1026DC0076EF13F0D8902436253626362736282A5E
:1026EC0027AE7BEF13F07DEF13F070EF13F0D89063
:1026FC002A362B362C362D362450205C255021586A
:10270C002650225827502358D8A08FEF13F091EF62
:10271C0013F09AEF13F02450205E2550215A2650C6
:10272C00225A2750235A2A80D89027322632253213
:10273C002432282E7DEF13F02950D8B4A8EF13F0D3
:10274C00AAEF13F0B2EF13F02D1E2C1E2B1E2A6CC9
:10275C00000E2B222C222D222AC020F02BC021F07F
:10276C002CC022F02DC023F0120036343734000177
:10277C00D66FD651D8A4C5EF13F0C7EF13F0D1EF35
:10278C0013F0000E346E000E356E000E366E000E19
:10279C00376E3EEF14F034C0D1F035C0D2F036C0F5
:1027AC00D3F037C0D4F0200EE1EF13F0D890D4332F
:1027BC00D333D233D133E82EDCEF13F0D151D56FB4
:1027CC00368EFF0E3416FF0E3516FF0E3616000E23
:1027DC003716960ED65FD6BFF8EF13F0F6EF13F060
:1027EC000EEF14F0D651800A970FD8B000EF14F00A
:1027FC0002EF14F004EF14F0C7EF13F0D890373257
:10280C00363235323432D63F04EF14F026EF14F062
:10281C001F0ED66514EF14F016EF14F01EEF14F023
:10282C00C7EF13F0D8903436353636363736D607F0
:10283C00D651D8A424EF14F026EF14F018EF14F0AE
:10284C00D551D8B42CEF14F02EEF14F036EF14F061
:10285C00371E361E351E346C000E352236223722BA
:10286C0034C034F035C035F036C036F037C037F0F0
:10287C0012008FEC1DF0F28EF28CAEEC18F0610EA3
:10288C00396E010E0001E06F010E0EEC12F0E0C08B
:10289C0082F0E1C083F0010E0101686F100E696FC8
:1028AC0082C06AF183C06BF1000E6D6F140E6C6FF9
:1028BC00030E6F6F200E6E6F050E716FDC0E706F56
:1028CC00BEEC1DF0520E0101746F2B0E736F000ED7
:1028DC00E82EFED7732FFCD7742FFAD700F09DEF9C
:1028EC0014F04004D8A47DEF14F07FEF14F082EFC5
:1028FC0014F04150A3EC12F04B50D8A488EF14F014
:10290C008AEF14F047EF14F04050D8A490EF14F075
:10291C0092EF14F047EF14F03E50D8A498EF14F057
:10292C009AEF14F047EF14F0030047EF14F039500E
:10293C000101736F746B7451000AD8B4A8EF14F0D2
:10294C0047EF14F07351610AD8B447EF14F0050A3D
:10295C00D8B447EF14F0090AD8B477EF14F047EF66
:10296C0014F07EEF00F00001C76F6B826BB2C1EF09
:10297C0014F0C3EF14F0BCEF14F00001C7510109BF
:10298C006F6E000E2BEC15F00009D8A4D0EF14F0EC
:10299C00D2EF14F0D7EF14F04EEC1EF0030E2AEF2A
:1029AC0015F0010E2BEC15F00009D8A4E0EF14F093
:1029BC00E2EF14F0E4EF14F0D2EF14F06B86020E99
:1029CC002BEC15F00009D8A4EEEF14F0F0EF14F096
:1029DC00F2EF14F0D2EF14F0C4C0D9FFC5C0DAFF87
:1029EC00C9CFDFFF0001C44BC52B000E2BEC15F03B
:1029FC000009D8A404EF15F006EF15F008EF15F058
:102A0C00D2EF14F00001C605D8A40FEF15F011EFAA
:102A1C0015F014EF15F06B8A15EF15F06B9A6B88A7
:102A2C006BB81BEF15F01DEF15F016EF15F000014C
:102A3C00C62FE4EF14F06B846BB427EF15F029EF7D
:102A4C0015F022EF15F0070E1200386EEDEC1EF0AB
:102A5C00190AD8B434EF15F036EF15F03BEF15F03A
:102A6C00190E81EC1EF03DEF15F0ADEC1EF0F2945A
:102A7C00FEEC1EF072EF15F06BCF36F01F0E361613
:102A8C00D8A44BEF15F04DEF15F08BEF15F06DB49E
:102A9C0052EF15F054EF15F08BEF15F0FCEC1EF027
:102AAC00F294010E99EF15F06BBC5FEF15F061EF2E
:102ABC0015F08BEF15F0FCEC1EF0F29457EF15F0BF
:102ACC006BB66BEF15F06DEF15F08BEF15F0FCECB2
:102ADC001EF0F29457EF15F03850366E376A3750B7
:102AEC00000AD8B47CEF15F08BEF15F03650000AC5
:102AFC00D8B442EF15F0010AD8B45AEF15F0030A16
:102B0C00D8B466EF15F08BEF15F08CEC1EF00009C5
:102B1C00D8B493EF15F095EF15F072EF15F0FCECBF
:102B2C001EF0F294000E12003CA09FEF15F0A1EFE6
:102B3C0015F0ABEF15F028C01FF029C020F026C00F
:102B4C0021F027C022F0F5EC1CF02BBEB0EF15F0F5
:102B5C00B2EF15F0B8EF15F02AC02FF02BC030F003
:102B6C00BCEF15F0000E306E000E2F6E000E2E6EA8
:102B7C00000E2D6ECEEF15F0000E176E200E166E99
:102B8C0026C018F027C019F0FBEC18F02D4A2E2A9D
:102B9C002F502D5C2E50800A2C6E3050800A2C58F1
:102BAC00D8A0DBEF15F0DDEF15F0C2EF15F03CB05F
:102BBC00E2EF15F0E4EF15F0EEEF15F028C01FF082
:102BCC0029C020F026C021F027C022F0F5EC1CF023
:102BDC0028C014F029C015F074EC1DF02F501424EB
:102BEC00266E30501520276E12003A0EAE18D8A45F
:102BFC0002EF16F004EF16F013EF16F00001BD51C2
:102C0C00D8A40BEF16F00DEF16F013EF16F0010E23
:102C1C00BD6F000EBC6F5BEF16F00001BD51D8B458
:102C2C001AEF16F01CEF16F059EF16F0180E43249D
:102C3C00D96EDA6A010EDA22AECFDFFF180E43240A
:102C4C00D96EDA6A010EDA223B0EDE18D8A431EF07
:102C5C0016F033EF16F03EEF16F04B2A180E432405
:102C6C00D96EDA6A010EDA22000EDF6E000EBD6F2D
:102C7C00432A170E436445EF16F047EF16F049EF61
:102C8C0016F0000E436E170EBC654FEF16F051EFA9
:102C9C0016F055EF16F0000EBD6F56EF16F0BC2B6C
:102CAC00BF2B5BEF16F0000EBD6F1200600E4324BD
:102CBC00D96EDA6A000EDA22000EDF6EABA469EF71
:102CCC0016F06BEF16F07FEF16F0600E4324D96E02
:102CDC00DA6A000EDA220001DF8202D87FEF16F0EA
:102CEC000500FA6EB251FD6EB351FE6EFF6AFA50DA
:102CFC001200ABA284EF16F086EF16F09AEF16F0E6
:102D0C00600E4324D96EDA6A000EDA220001DF84E9
:102D1C0002D89AEF16F00500FA6EB051FD6EB15163
:102D2C00FE6EFF6AFA501200600E4324D96EDA6A06
:102D3C00000EDA22DF50D8B4A6EF16F0A8EF16F08A
:102D4C00B7EF16F002D8B5EF16F00500FA6E0001D9
:102D5C00AE51FD6EAF51FE6EFF6AFA501200B9EF24
:102D6C0016F0FBEC15F01200FACF05F0FBCF06F0D5
:102D7C00D9CF07F0DACF08F0F3CF09F0F4CF0AF08F
:102D8C00F0A6CBEF16F0CDEF16F0D8EF16F0F0A0C2
:102D9C00D2EF16F0D4EF16F0D8EF16F0E9EC1EF0E7
:102DAC0007EF17F09DAADDEF16F0DFEF16F0F5EF49
:102DBC0016F09EAAE4EF16F0E6EF16F0F5EF16F01B
:102DCC0002D8F3EF16F00500FA6E0001B451FD6E57
:102DDC00B551FE6EFF6AFA50120007EF17F0F2A819
:102DEC00FAEF16F0FCEF16F007EF17F0F2A201EF76
:102DFC0017F003EF17F007EF17F004EC1FF007EFD5
:102E0C0017F00AC0F4FF09C0F3FF08C0DAFF07C0CF
:102E1C00D9FF06C0FBFF05C0FAFF4C921100000160
:102E2C00DB6FDE0E0001C46F000EC56F020EC66FA5
:102E3C00DB51B9EC14F0030AD8A427EF17F029EFF3
:102E4C0017F032EF17F0030E0001A16F000ED86FD0
:102E5C00000ED76F69EF17F0070E0001A16FDF515D
:102E6C00DEC0D9F0DA6BD9C0DAF0D96BD911DC6FCE
:102E7C00DA51DD6F9A0E2C6E990E2D6E990E2E6E08
:102E8C003F0E2F6EDCC01AF0DDC01BF01C6A1D6AF1
:102E9C00000E54EC0EF01AC028F01BC029F01CC018
:102EAC002AF01DC02BF034EC0AF028C034F029C0F5
:102EBC0035F02AC036F02BC037F0BBEC13F034C021
:102ECC00D7F035C0D8F012000001C56F000E2BEC06
:102EDC0015F00009D8A475EF17F077EF17F07CEF19
:102EEC0017F04EEC1EF0010EBDEF17F06B806BB0BF
:102EFC0082EF17F084EF17F07DEF17F0C5C06FFF6E
:102F0C00000E2BEC15F00009D8A48FEF17F091EF01
:102F1C0017F093EF17F077EF17F0010E2BEC15F07D
:102F2C000009D8A49CEF17F09EEF17F0A0EF17F054
:102F3C0077EF17F0C4C06FFF000E2BEC15F00009F3
:102F4C00D8A4ABEF17F0ADEF17F0AFEF17F077EFAA
:102F5C0017F0010E2BEC15F00009D8A4B8EF17F000
:102F6C00BAEF17F0BCEF17F077EF17F0050E120061
:102F7C00000E1C6E000E1D6E000E1E6E000E1F6EDF
:102F8C00185019101A101B10D8B4CFEF17F0D1EF3E
:102F9C0017F007EF18F0010E206EDBEF17F0D8904A
:102FAC00183619361A361B36202A1BAEE0EF17F0EE
:102FBC00E2EF17F0D5EF17F0D8901C361D361E3601
:102FCC001F361850145C195015581A5016581B50AF
:102FDC001758D8A0F4EF17F0F6EF17F0FFEF17F033
:102FEC001850145E1950155A1A50165A1B50175A6D
:102FFC001C80D8901B321A3219321832202EE2EF74
:10300C0017F01CC014F01DC015F01EC016F01FC028
:10301C0017F01200326E050E326017EF18F019EF30
:10302C0018F01FEF18F0F60E346E3B0E336E52EFA5
:10303C0018F0830E326425EF18F027EF18F02DEFFF
:10304C0018F0000E346E230E336E52EF18F032501F
:10305C00146E156A166A176A000E186EFA0E196E3F
:10306C00000E1A6E000E1B6E12EC1CF014C020F039
:10307C0015C021F016C022F017C023F0800E246E6C
:10308C00000E256E000E266E000E276E35EC13F02A
:10309C00201C336E211C346E3450D76E33C0D6FFD7
:1030AC003350316E306A335030102E6E3450311034
:1030BC002F6E1200386E3850D8B467EF18F069EFE5
:1030CC0018F0A5EF18F0000E286E000E296E7A0E7F
:1030DC002A6E470E2B6E38C014F0156A060E176E4A
:1030EC00400E166EFAEC1DF014C01AF015C01BF051
:1030FC00000E1BBEFF0E1C6E1D6E010E54EC0EF06E
:10310C001AC02CF01BC02DF01CC02EF01DC02FF0CF
:10311C0034EC0AF028C09AF029C09BF02AC09CF02D
:10312C002BC09DF09AC034F09BC035F09CC036F09B
:10313C009DC037F0BBEC13F034500001C36F9AC044
:10314C00D7F09BC0D8F09CC0D9F09DC0DAF012002B
:10315C00000E236E000E236E000E2324D96EDA6A45
:10316C00010EDA22000EDF6E232A170E2364C1EF44
:10317C0018F0C3EF18F0B2EF18F0000E0001B96FA1
:10318C00000E3A6E0A0E1B6E010E23EC1AF01BC0D9
:10319C008AF01CC08BF000018B5107E1270E8A5D71
:1031AC00D8B0DBEF18F0DDEF18F0E1EF18F0010EFE
:1031BC003B6EF2EF18F0E00E8A5D020E8B59D8A030
:1031CC00EAEF18F0ECEF18F0F0EF18F0020E3B6E8F
:1031DC00F2EF18F0000E3B6E000E8D6F000E8C6F30
:1031EC008AC08EF08BC08FF0120018501910D8B412
:1031FC0002EF19F004EF19F00DEF19F01850191037
:10320C00D8A40BEF19F00DEF19F012EF19F01650BE
:10321C00B3EC1EF045EF19F020EE04F01850D9264F
:10322C001950DA22DE50DE10D8B41FEF19F021EF5E
:10323C0019F03CEF19F020EE04F01850D926195073
:10324C00DA2210EE02F01850E1261950E222DE507C
:10325C00E65CE650800A1E6EDE50800A1E58D8B01E
:10326C003AEF19F03CEF19F045EF19F020EE02F0AF
:10327C001850D9261950DA22DE2A000EDD2212004F
:10328C000001C86F61EF19F08350F30B8C6E7FEF68
:10329C0019F08350F30B0C098C6E7FEF19F08350EF
:1032AC00F30B08098C6E7FEF19F08350F30B0409B4
:1032BC008C6E7FEF19F00001C851C66FC76BC751F8
:1032CC00000AD8B46CEF19F07FEF19F0C651010A5F
:1032DC00D8B44AEF19F0030AD8B44FEF19F0010A29
:1032EC00D8B455EF19F0070AD8B45BEF19F07FEF9B
:1032FC0019F0230EC46F460E6AEC17F0E806D8A43A
:10330C008AEF19F08CEF19F08FEF19F0010E90EF96
:10331C0019F0050E12000001E56F030E96128B9446
:10332C009484130E0F015A6F49513F0B4009496F9A
:10333C00040E0001E561A5EF19F0A7EF19F0ACEF51
:10334C0019F0040E60EC1BF0AFEF19F0E55160ECD6
:10335C001BF08F0E0F015B17F30E5B17FC0E5B1748
:10336C005C9F5D513F0B80095D6F5D51F00B0C094B
:10337C005D6F320E0001DB6F000EF2EC0FF00F01EF
:10338C005C51800B50095C6F030E5113F0EC1EF076
:10339C00000ED1EC1EF0FC0E96168B949494F3EC6C
:1033AC001EF0000E3E6E000E3F6E12000001E16F2B
:1033BC00030E9412899A928A130E636EE70E0F0114
:1033CC004917040E0001E161EEEF19F0F0EF19F06E
:1033DC00F5EF19F0040E9CEC1BF0F8EF19F0E1512D
:1033EC009CEC1BF08F0E6416F30E6416FC0E641628
:1033FC00659E66503F0B8009666E6650F00B0C099B
:10340C00666E320E0001D76F000E5EEC11F0655047
:10341C00800B5009656E030EBA1200EC1FF0000E03
:10342C00D9EC1EF0FC0E9416899A929A02EC1FF0BD
:10343C00000E406E000E416E12001F6E000E216ECB
:10344C00000E206E000E226E1FC01DF01D461D4684
:10345C00C2501D18830B1D18C26EC282C2B239EF46
:10346C001AF03BEF1AF034EF1AF0C350C4CF1DF032
:10347C001E6A1DC01EF01D6A1D26000E1E221D5048
:10348C0020261E502122222A0A0EE82EFED700D01A
:10349C001B50225CD8A055EF1AF057EF1AF033EFFF
:1034AC001AF020C014F021C015F01BC016F0176ADA
:1034BC00D8EC1BF014C01BF015C01CF01200386EB9
:1034CC003850D8B46CEF1AF06EEF1AF09DEF1AF07A
:1034DC00000E286E000E296E7A0E2A6E470E2B6E89
:1034EC0038C014F0156A060E176E400E166EFAEC04
:1034FC001DF014C01AF015C01BF0000E1BBEFF0E01
:10350C001C6E1D6E010E54EC0EF01AC02CF01BC07C
:10351C002DF01CC02EF01DC02FF034EC0AF028C08A
:10352C0096F029C097F02AC098F02BC099F096C05D
:10353C0034F097C035F098C036F099C037F01200CF
:10354C003F0E0F013A179D9AB80E146E2C0E156E85
:10355C00BDEC1EF09D986E0E146E3A0E156EB8EC06
:10356C001EF0080EB86E900EAB6E240EAC6E820E72
:10357C00AF6E060EB06E948E0C0E146E3E0E156E63
:10358C00C7EC1EF0EC0E146E3D0E156EC2EC1EF068
:10359C00F20E146E3D0E156ECCEC1EF0000E0001FA
:1035AC00BE6F000E466E000E456E180E446E000E79
:1035BC00436E000E426E000EBF6F9D8A12004004D7
:1035CC00D8A4EBEF1AF0EDEF1AF022EF1BF0030E7C
:1035DC00406EEDEC1EF0190AD8B4F7EF1AF0F9EFC3
:1035EC001AF0FEEF1AF0190E81EC1EF000EF1BF032
:1035FC00ADEC1EF0FEEC1EF08CEC1EF00009D8B405
:10360C000AEF1BF00CEF1BF002EF1BF0F294ADEC89
:10361C001EF047C0D7F041505EEC11F0472A320E35
:10362C0047641BEF1BF01DEF1BF002EF1BF00DECC2
:10363C001EF0FCEC1EF0F29412000001BA51D8A45A
:10364C002AEF1BF02CEF1BF05BEF1BF08E51925D01
:10365C00266E8F519359276E17EC1DF026C0FCF087
:10366C0027C0FDF092C08EF093C08FF00001FD5189
:10367C0009E1330EFC5DD8A046EF1BF048EF1BF0C0
:10368C005EEF1BF0010EBA6F4004D8A450EF1BF094
:10369C0052EF1BF05BEF1BF0E5EC1AF0110E010181
:1036AC00686F100E696FBEEC1DF0090E5FEF1BF01A
:1036BC00010E12000001DD6F0001DD51C119D8B4FB
:1036CC006AEF1BF06CEF1BF09BEF1BF0050EDD613E
:1036DC0072EF1BF074EF1BF079EF1BF0F90ED5ECC9
:1036EC001EF095EF1BF0000E206EFA0E216E000EF0
:1036FC00226E000E236EDD51400DF3CFDBF0F4CFC4
:10370C00DCF0DBC024F0DCC025F0000E25BEFF0E83
:10371C00266E276E35EC13F02004D5EC1EF0DDC0C0
:10372C00C1F00001DD5160EC18F012000001D36F04
:10373C000001D351C019D8B4A6EF1BF0A8EF1BF0B1
:10374C00D7EF1BF0050ED361AEEF1BF0B0EF1BF003
:10375C00B5EF1BF0F90EDDEC1EF0D1EF1BF0000EF7
:10376C00206EFA0E216E000E226E000E236ED351C7
:10377C00400DF3CFD1F0F4CFD2F0D1C024F0D2C0B1
:10378C0025F0000E25BEFF0E266E276E35EC13F0CD
:10379C002004DDEC1EF0D3C0C0F00001D35165EC69
:1037AC001AF01200000E1A6E000E196E1650171039
:1037BC00D8B4E3EF1BF0E5EF1BF00DEF1CF0010E9E
:1037CC00186EEDEF1BF0D89016361736182A17AE78
:1037DC00F2EF1BF0F4EF1BF0E9EF1BF0D890193669
:1037EC001A361650145C17501558D8A000EF1CF060
:1037FC0002EF1CF007EF1CF01650145E1750155A10
:10380C001980D89017321632182EF4EF1BF019C00D
:10381C0014F01AC015F01200000E1C6E000E1D6E76
:10382C00000E1E6E000E1F6E14A01FEF1CF021EF79
:10383C001CF029EF1CF018501C2619501D221A5090
:10384C001E221B501F22D890183619361A361B36DA
:10385C00D890173216321532143214501510161027
:10386C001710D8A43CEF1CF03EEF1CF01AEF1CF024
:10387C001CC014F01DC015F01EC016F01FC017F0B0
:10388C001200F2C0F6F0F3C0F7F0000E0001A36FC7
:10389C00000EA26F65EF1CF0F0C0E0F0F1C0E1F09B
:1038AC00F60EE26F000EE36FF4C0E4F0F5C0E5F045
:1038BC0074EC0DF00001E051A227E151A323F6C0F6
:1038CC00F6FFF7C0F7FFF86A0800F5500009D8A416
:1038DC0072EF1CF074EF1CF052EF1CF0A2C0F0F071
:1038EC00A3C0F1F01200146E76EC1EF00009D8B4EF
:1038FC0082EF1CF084EF1CF07AEF1CF09DB889EF7E
:10390C001CF08BEF1CF08FEF1CF014C0ADFFA4EF7C
:10391C001CF09D98300E4624D96EDA6A010EDA221C
:10392C0014C0DFFF462A170E46649FEF1CF0A1EF70
:10393C001CF0A3EF1CF0000E466E44069D8812008E
:10394C000001C351320DF3CF03F0F4CF04F003C0E8
:10395C0001F004C002F0D89002320132D890023249
:10396C00013201500F015E6F03C001F0013A5D514D
:10397C000118CF0B01185D6FD00E016ECA0EE82E28
:10398C00FED7012EFCD78B940F015B8F5195000E47
:10399C003E6E000E3F6E1200000E896E000E8A6E97
:1039AC00000E8B6E000E8C6E000E8D6EE70E926EFE
:1039BC00C70E936EC70E946E020E956E030E966E26
:1039CC00070E0F01386F000E396F000E3A6F000EA4
:1039DC003B6F000E3C6F040E616EF19E1200000EE8
:1039EC00256E000E246E06EF1DF023C016F0176A2C
:1039FC0021C018F022C019F0FBEC18F0244A252A3B
:103A0C0024501F24D96E25502020DA6EDF50236EEF
:103A1C002350D8A414EF1DF016EF1DF0FBEF1CF093
:103A2C00120027BE24EF1DF0275006E12604D8B063
:103A3C0022EF1DF024EF1DF032EF1DF026C028F010
:103A4C0027C029F0281E291E284A292A28C026F01A
:103A5C0029C027F036EF1DF026C026F027C027F02E
:103A6C001200180E44603DEF1DF03FEF1DF055EFB6
:103A7C001DF0300E4524D96EDA6A010EDA22DF50C1
:103A8C00AD6E452A170E45644EEF1DF050EF1DF03C
:103A9C0052EF1DF0000E456E442A56EF1DF09D9816
:103AAC001200000E0001A06FF30E9516010EE06FD0
:103ABC00010E0EEC12F0010E0001E06F020E0EEC86
:103ACC0012F0010E0001E06F030E0EEC12F0010E6D
:103ADC000001E06F040E0EEC12F0120014C016F090
:103AEC0015C017F07CEF1DF0144A152A14C0D9FF2D
:103AFC0015C0DAFFDF50D8A486EF1DF088EF1DF05B
:103B0C007AEF1DF01650145C146E17501558156E84
:103B1C0012006AEC1EF0D2EC1CF096EC1EF00A0EB1
:103B2C00DCEC19F00A0E91EC19F01FEC1EF0190EDA
:103B3C005CEC1EF04EEC1EF057EC1DF0A6EC1AF0EF
:103B4C00120001EE00F0680EEE6AE806FDE100EEF0
:103B5C0060F0640EEE6AE806FDE100EE39F0130E3B
:103B6C00EE6AE806FDE14C904C9200013FEF14F038
:103B7C006A0E0001FA6F010EFB6F000EF06F000E63
:103B8C00F16F68C1F2F069C1F3F0FA0EF46F000E38
:103B9C00F56F47EC1CF01200B1A4D7EF1DF0D9EF74
:103BAC001DF0E1EF1DF0B1900C50B36E0BC0B2FFE5
:103BBC00B180E5EF1DF00C50B36E0BC0B2FF1200DC
:103BCC00CDA4EBEF1DF0EDEF1DF0F5EF1DF0CD905A
:103BDC000C50CF6E0BC0CEFFCD80F9EF1DF00C500A
:103BEC00CF6E0BC0CEFF120014501602F3CF18F09C
:103BFC00F4CF19F014501702F35019261550160271
:103C0C00F350192618C014F019C015F012004050CA
:103C1C00D8B413EF1EF015EF1EF01EEF1EF0899AAC
:103C2C0002EC1FF000EC1FF0000E406E000E416E17
:103C3C001200070E9212070E0F013813050EC26EFA
:103C4C00000EC16E960EC06E000EC36E000EC46EDA
:103C5C001200030E0001C26136EF1EF038EF1EF0A9
:103C6C003BEF1EF0C22B3DEF1EF0010EC26FF09227
:103C7C001200F292F18CF288F090F08CF18AF086BE
:103C8C00F092F09EF198F088000E0001C26F1200C5
:103C9C00800E6D6E280E6C6E000E696E9F0E6E6E31
:103CAC00FC0E0F013B17030E95121200356E040E1D
:103CBC00D56EF294355010EC18F02EC0ACF02FC02D
:103CCC00ADF035C0BBF01200080ED36E040ED26EF0
:103CDC00D2AE73EF1EF075EF1EF06EEF1EF01200F9
:103CEC004450D8A47CEF1EF07FEF1EF0010E80EF45
:103CFC001EF0000E1200356E355010EC18F02EC070
:103D0C00ACF02FC0ADF035C0BBF01200F2B491EFA7
:103D1C001EF094EF1EF0010E95EF1EF0000E120037
:103D2C00D08E9F8A9F983FEC1EF0A2929F90F290AB
:103D3C001200A8C00BF0A9C00CF0D2EC1DF01200C0
:103D4C00AAC00BF0ABC00CF0E6EC1DF012000001A9
:103D5C00AD51D76EACC0D6FF1200156E155079EC74
:103D6C001CF0120014C0B6F015C0B7F0120014C04D
:103D7C00B4F015C0B5F0120014C0B0F015C0B1F01D
:103D8C00120014C0B2F015C0B3F0120014C0AEF0A3
:103D9C0015C0AFF01200146E14C053FF1200146E55
:103DAC0014C052FF1200146E14C0BCFF1200146E2B
:103DBC0014C0BBFF1200A1929FEC1EF012009E904B
:103DCC00A6EC1EF01200A6EC1CF0F0901200000104
:103DDC00BB5112000F01519512000F015B8F1200A5
:103DEC00AB98AB881200FBEC15F01200D59E1200BC
:103DFC00D58E1200BA941200648E1200F292120048
:023E0C001200A2
:020000040020DA
:08000000FFFFFFFFFFFFFFFF00
:020000040030CA
:0E000000FF73163CFF8981FF0FC00FE00F4019
:00000001FF
